:100000000C942A000C947D040C9487040C944700F3
:100010000C9447000C942C040C9447000C9447005B
:100020000C949A000C9447000C9447000C944700E1
:100030000C9447000C9447000C9447000C94470024
:100040000C9447000C9447000C9447000C94470014
:100050000C94470011241FBECFE5D4E0DEBFCDBF16
:1000600010E0A0E6B0E0E2ECF9E002C005900D92ED
:10007000A03EB107D9F710E0A0EEB0E001C01D929C
:10008000AA3EB107E1F70E94B8040C94DF040C9477
:1000900000008BB780648BBF85B7826085BF0895F1
:1000A0008BB780688BBF85B7886085BF089589B797
:1000B000846289BF8EB580648EBD08958A9A929AB3
:1000C00008958091D4009091D5009093D3008093AF
:1000D000D2008091D6009091D7009093D500809364
:1000E000D4008091D8009091D9009093D70080934C
:1000F000D6008091DA009091DB009093D900809334
:10010000D8008091DC009091DD009093DB0080931B
:10011000DA008091DE009091DF009093DD00809303
:10012000DC008091E0009091E1009093DF008093EB
:10013000DE0008951F920F920FB60F9211242F9395
:100140003F934F935F938F939F93EF93FF9387E03A
:1001500090E09093D1008093D0008EB58D7F8EBDBE
:100160008091E6009091E700019731F41092E7004A
:100170001092E6008A98929A8091D4009091D500CE
:100180009093D3008093D2008091D6009091D700B5
:100190009093D5008093D4008091D8009091D9009D
:1001A0009093D7008093D6008091DA009091DB0085
:1001B0009093D9008093D8008091DC009091DD006D
:1001C0009093DB008093DA008091DE009091DF0055
:1001D0009093DD008093DC008091E0009091E1003D
:1001E0009093DF008093DE008091E8009091E90019
:1001F000892B09F009C22091DA003091DB0080914F
:1002000060009091610028173907B1F42091DC005B
:100210003091DD00809162009091630028173907CA
:1002200059F42091DE003091DF00809164009091BC
:1002300065002817390709F12091DA003091DB00B9
:10024000809166009091670028173907C9F42091C2
:10025000DC003091DD0080916800909169002817E2
:10026000390771F42091DE003091DF0080916A003F
:1002700090916B002817390719F481E090E0C0C114
:100280002091D6003091D7008091C0009091C1009C
:1002900001962817390779F52091D8003091D900B7
:1002A00080917200909173002817390721F52091F1
:1002B000DA003091DB00809174009091750028176E
:1002C0003907C9F42091DC003091DD00809176007F
:1002D000909177002817390771F42091DE00309152
:1002E000DF0080917800909179002817390719F480
:1002F00082E090E085C12091DA003091DB008091AE
:10030000C0009091C10028173907C9F42091DC0082
:100310003091DD0080917C0090917D002817390795
:1003200071F42091DE003091DF0080917E00909189
:100330007F002817390719F483E090E061C120910C
:10034000DA003091DB008091C0009091C100281745
:100350003907C9F42091DC003091DD0080918000E4
:10036000909181002817390771F42091DE003091B7
:10037000DF0080918200909183002817390719F4DB
:1003800085E090E03DC12091D6003091D70080916A
:10039000C0009091C1002817390779F52091D80045
:1003A0003091D900809184009091850028173907F9
:1003B00021F52091DA003091DB0080918600909148
:1003C000870028173907C9F42091DC003091DD003F
:1003D00080918800909189002817390771F4209145
:1003E000DE003091DF0080918A0090918B00281709
:1003F000390719F486E090E003C12091D6003091CE
:10040000D7008091C0009091C1002817390779F575
:100410002091D8003091D90080918C0090918D006E
:100420002817390721F52091DA003091DB008091FF
:100430008E0090918F0028173907C9F42091DC00B5
:100440003091DD008091900090919100281739073C
:1004500071F42091DE003091DF0080919200909144
:1004600093002817390719F487E090E0C9C020915C
:10047000D8003091D9008091C0009091C100281718
:10048000390721F52091DA003091DB00809194004A
:100490009091950028173907C9F42091DC0030911C
:1004A000DD0080919600909197002817390771F42C
:1004B0002091DE003091DF008091980090919900AA
:1004C0002817390719F488E090E09AC02091D800E5
:1004D0003091D9008091C0009091C1002817390750
:1004E00021F52091DA003091DB0080919A00909103
:1004F0009B0028173907C9F42091DC003091DD00FA
:1005000080919C0090919D002817390771F42091EB
:10051000DE003091DF0080919E0090919F002817AF
:10052000390719F489E090E06BC02091DA0030912E
:10053000DB008091C0009091C10028173907C9F4F1
:100540002091DC003091DD008091A0009091A1000D
:100550002817390771F42091DE003091DF00809177
:10056000A2009091A3002817390719F48AE090E0BF
:1005700047C02091DA003091DB008091C00090915B
:10058000C10028173907C9F42091DC003091DD0043
:100590008091A4009091A5002817390771F420914B
:1005A000DE003091DF008091A6009091A70028170F
:1005B000390719F48BE090E023C02091DA003091E4
:1005C000DB008091C0009091C10028173907E1F449
:1005D0002091DC003091DD008091A8009091A9006D
:1005E0002817390789F42091DE003091DF008091CF
:1005F000AA009091AB002817390731F48CE090E005
:100600009093E9008093E8004091E8005091E90060
:100610004730510509F473C048305105B8F44330F0
:10062000510509F4DAC04430510540F44130510518
:1006300031F14230510509F002C1A9C045305105E0
:10064000D9F14630510509F0FAC04FC04A30510582
:1006500009F47DC04B30510548F44830510509F488
:1006600058C04930510509F0EAC05DC04B30510512
:1006700009F46DC04C30510509F0E1C06DC0209106
:10068000E0003091E1008091C0009091C1002817F6
:10069000390709F0D4C05093E7004093E6008091F9
:1006A000C0009091C1009093E3008093E20010920B
:1006B000E9001092E800C1C081E090E09093E7006B
:1006C0008093E6001092E3001092E2001092E9009D
:1006D0001092E80082E090E09093AF008093AE002B
:1006E0009093BD008093BC00A8C01092E9001092C6
:1006F000E8008091B6009091B700019623C0109257
:10070000E9001092E8008091B6009091B70001973F
:1007100019C01092E9001092E8008091B200909107
:10072000B300019609C01092E9001092E800809190
:10073000B2009091B30001979093B3008093B20000
:1007400081E090E09093B7008093B60078C010925B
:10075000E9001092E80073C081E090E09093E70018
:100760008093E6001092E3001092E2001092E900FC
:100770001092E8008A9A929A88E090E09093BD00E7
:100780008093BC009093AF008093AE0058C081E08E
:1007900090E09093E7008093E600E091E400F09110
:1007A000E500EE0FFF1FE455FF4F8081918190938C
:1007B000E3008093E2008091E4009091E5000196CF
:1007C0009093E5008093E4002091E4003091E500EF
:1007D0008091BE009091BF0025C081E090E0909391
:1007E000E7008093E600E091E400F091E500EE0F71
:1007F000FF1FEE53FF4F808191819093E300809320
:10080000E2008091E4009091E50001969093E5006C
:100810008093E4002091E4003091E5008091CE00C7
:100820009091CF008217930740F41092E900109244
:10083000E8001092E5001092E4008A9A929AFF91E3
:10084000EF919F918F915F914F913F912F910F90D9
:100850000FBE0F901F9018951F920F920FB60F9218
:1008600011242F933F934F935F938F939F938CE922
:100870009FEF9DBD8CBD8EB582608EBD829B12C0E8
:100880004091E0005091E1002091D0003091D100E2
:1008900081E090E002C0880F991F2A95E2F7842B2F
:1008A000952B13C04091E0005091E1002091D000C1
:1008B0003091D10081E090E002C0880F991F2A9505
:1008C000E2F780959095842395239093E10080939F
:1008D000E0008091D0009091D10001979093D100D9
:1008E0008093D0009F918F915F914F913F912F9175
:1008F0000F900FBE0F901F9018951F920F920FB67A
:100900000F9211240F900FBE0F901F9018951F92F9
:100910000F920FB60F9211242F933F934F935F9333
:100920008F939F934091E6005091E700413051052D
:10093000A1F42091E2003091E3008091D0009091E9
:10094000D10002C0440F551F8A95E2F7422353237A
:10095000452B11F0929A01C092989F918F915F91CF
:100960004F913F912F910F900FBE0F901F901895B0
:100970008BB780648BBF85B7826085BF8BB780687B
:100980008BBF85B7886085BF89B7846289BF8EB504
:1009900080648EBD8A98929A8B98939AA098A89A10
:1009A0007894A09AA89880E197E220E931E0F901D3
:1009B0003197F1F70197D9F7A098A89AFFCFF8944B
:0209C000FFCF67
:1009C20007001A00EE00ED008000860000001E0005
:1009D200EC001B00E0000100080010001E00EF0008
:1009E200190022001B002D00400001001B002D00F9
:1009F200000001001A00500041001A0050000100DE
:100A0200190052001900290019002F0000000200ED
:100A12000000010080000100C7000A000200080077
:100A2200E8000000FC00FF004A00FC00FF00050097
:100A32000700FF00FF00FF00FF00FF00FF00FF00B4
:00000001FF
